:0200000490006A
:100000009863012085030090675C00904554009040
:10001000655C0090CF120090216F009000000000FE
:10002000000000000000000000000000C502009079
:10003000191500900000000021030090A1610090BC
:100040009F0300909F0300909F0300909F030090E8
:100050009F0300909F0300909F0300906D160090F7
:100060009F0300909F0300909F030090D112009087
:10007000DD120090E91200909F0300909F03009012
:100080009F0300909F0300909F0300909F030090A8
:100090009F0300909F0300909F0300909F03009098
:1000A0009F0300909F0300909F0300909F03009088
:1000B0009F0300909F0300909F0300909F03009078
:1000C0009F0300909F0300909F0300909F03009068
:1000D000315F00909F0300909F0300909F0300906A
:1000E0009F0300909F0300909F0300909F03009048
:1000F0009F0300909F0300909F0300909F03009038
:100100009F0300909F0300909F0300903D5F00902D
:100110009F0300909F0300909F0300909F03009017
:100120009F0300909F0300909F0300909F03009007
:100130009F03009000000000000000009F0300905B
:100140009F0300909F0300909F0300909F030090E7
:100150009F0300909F0300909F0300909F030090D7
:100160009F0300909F0300909F0300909F030090C7
:100170009F0300909F0300909F0300909F030090B7
:100180009F0300909F0300909F0300909F030090A7
:100190009F0300909F0300909F0300909F03009097
:1001A000195600900D560090F51200909F03009094
:1001B0009F0300909F0300909F0300909F03009077
:1001C0009F0300909F0300900000000000000000CB
:1001D00000000000000000009F03009000000000ED
:1001E000000000000000000000000000000000000F
:1001F00000000000000000009F0300909F0300909B
:100200009F0300909F030090000000009F03009058
:100210009F0300909F030090296300909F0300902C
:100220009F0300909F0300909F0300900000000038
:100230009F0300909F030090000000009F03009028
:100240009F0300909F0300909F0300909F030090E6
:100250009F0300909F0300909F0300909F030090D6
:100260009F0300909F0300909F0300909F030090C6
:100270009F0300909F0300909F03009000000000E8
:100280009F0300909F030090000000009F030090D8
:10029000000000009F0300909F0300909F030090C8
:1002A0009F0300909F0300909F030090DFF810D001
:1002B00000F078FD0048004739710290AFF30080EC
:1002C000986301202C4B19680868B0E8F04F80F360
:1002D0000988BFF36F8F4FF0000080F311887047DB
:1002E0000000000008480068006880F308884FF0AC
:1002F000000080F3148862B661B6BFF34F8FBFF37E
:100300006F8F00DF00BF00BF08ED00E0DFF80C00DA
:10031000016841F470010160704700BF88ED00E0A2
:10032000EFF30980BFF36F8F134B1A681EF0100FA5
:1003300008BF20ED108A20E9F04F106009B44FF09B
:10034000500080F31188BFF34F8FBFF36F8F2DF0F4
:1003500085FD4FF0000080F3118809BC196808681A
:10036000B0E8F04F1EF0100F08BFB0EC108A80F319
:100370000988BFF36F8F704750020020EFF30580AC
:10038000704700000648804706480047FEE7FEE742
:10039000FEE7FEE7FEE7FEE7FEE7FEE7FEE7FEE735
:1003A00061620090AD0200902DE9F05F05460020EB
:1003B00092469B4688460646814640241BE02846D6
:1003C00041464746224600F07AFA53465A46C01A3A
:1003D000914110D311461846224600F061FA2D1AB9
:1003E00067EB01084F4622460120002100F058FA31
:1003F00017EB00094E41201EA4F10104DFDC484642
:1004000031462A464346BDE8F09FA0F14101192933
:1004100000D82030704740EA01039B0703D009E071
:1004200008C9121F08C0042AFAD203E011F8013BE0
:1004300000F8013B521EF9D27047D2B201E000F839
:10044000012B491EFBD270470022F6E710B5134678
:100450000A4604461946FFF7F0FF204610BD30B5A6
:1004600005462A460B4612F8010B13F8014B08B15A
:10047000A042F8D01CB1002802D06D1CF1E728463C
:1004800030BD421C10F8011B0029FBD1801A7047B7
:1004900010B5002200E0521C835C8C5CA34201D1A9
:1004A000002BF8D1D8B2E1B2401A10BD034611F8C2
:1004B000012B00F8012B002AF9D11846704730B5FE
:1004C00005460020034600E05B1C934205D2EC5C2D
:1004D000C85C201A01D1002CF6D130BD0FB400B594
:1004E0008DB010A909900B9000914FF0FF300A9049
:1004F00000200C9005480690054807906A4609A818
:100500000F9900F0F3F90DB05DF814FB09090090A4
:10051000270900902DE9FF4F087883B09946FF28FE
:1005200005D0491C2D2804D00024002008E000201C
:100530000BE00124F9E700EB800003EB4000491CCD
:100540000B78FF2BF7D104B14042002302931478BB
:1005500019461D462D2C01D02B2C04D1521C2D2CBC
:1005600013D000240294AA461478FF2C0FD00A2539
:10057000A3FB057801FB05814FF0000C03FB0C1178
:10058000521CE3194AEB0101EEE70124EAE781443A
:1005900053EA010002D019F5C87F06DA039800215A
:1005A000C0E9001107B0BDE8F08F0025AE4E2F4620
:1005B000DFF8B882184600F09DFBCDE90001B9F1E3
:1005C000000002DAC9F1000400E004460023A74A53
:1005D0001AEB030B42EB045A12E0E00707D02A465D
:1005E00033463846414600F0A4FA074688462A4674
:1005F00033461046194600F09CFA05460E46641034
:10060000002CEAD1DDE90001B9F1000F5A4653464A
:1006100006DA00F000FB3A46434600F0FCFA05E03B
:1006200000F087FA3A46434600F083FA029A0AB18C
:1006300081F00041039AC2E90001B3E72DE9FF4FC1
:100640001F468DB0D7E901464FF0FF382E204546B2
:100650004FF000090B90B9696D1C0E988847396AF4
:10066000824688470028F6D1BAF1FF3F0AD024F429
:10067000D064002E11DDBAF12B0F08D0BAF12D0F86
:100680000BD102E0404611B08DE744F48064B969B3
:100690006D1C0E9888478246761E6946600501D516
:1006A0002D2000E02B208DF8000001F1010B0DF151
:1006B000200809E0B9696D1C0E98884782460F989A
:1006C00044F40074761E0560002E02DDBAF1300F8E
:1006D000F0D00B998A453ED144F0800406E00F9992
:1006E000681CA9F1010944F400740860B9696D1C23
:1006F000761E0E98884782463028F0D02BE00B9962
:100700008A4505D1200603D444F08004761E18E003
:10071000504606F0F4FD08B30DF11301761E44F4C3
:1007200000748B4508D2AAF130000BF8010B2006AB
:1007300007D5A9F1010003E0200602D409F1010068
:100740008146A00502D50F99681C0860B9696D1C27
:100750000E9888478246002ED1DC53E0002E51DDF2
:10076000BAF1650F02D0BAF1450F4BD1A00549D5BA
:10077000B9696D1C24F44074761E0E988847824631
:10078000002E0CDD2B2804D0BAF12D0F07D144F434
:100790008074B9696D1C0E9888478246761EE00504
:1007A00001D52D2100E02B2108F8011BCDF82C806C
:1007B00021E00DF12901761E44F4007488450CD225
:1007C000AAF1300010F0FF0088F8000002D10B9968
:1007D000884509D908F1010806E0E00501D524485B
:1007E00001E042F20F708146B9696D1C0E9888478E
:1007F00082460F980560002E04DD504606F07FFD0E
:100800000028D6D1F9690E988847FF208BF80000A0
:1008100088F800000020069007904B466A4608A919
:1008200006A8FFF777FEA00502D46FF001002AE7C3
:1008300014F0240F0AD0E00714D1DDE9061238685D
:10084000031D3B600068C0E900120BE0DDE9060112
:1008500000F08CFA0146E00704D13868021D3A60C6
:100860000068016028460EE7000014400000F03FD9
:10087000F1D8FFFF30B50B460146002020220124AD
:1008800009E021FA02F59D4205D303FA02F5491B5E
:1008900004FA02F52844151EA2F10102F1DC30BD74
:1008A000202A04DB203A00FA02F100207047914030
:1008B000C2F1200320FA03F3194390407047202A25
:1008C00004DB203A21FA02F00021704721FA02F3FA
:1008D000D040C2F120029140084319467047000001
:1008E000026811441378016018467047D1600449CA
:1008F00051610449116200211161114600F07CBA76
:10090000E1080090ED0D0090426842B1016811F8D5
:10091000013B23B1521EC0E9001218467047012165
:10092000C160881E704742685AB1C368016843B904
:1009300083688B4205D0491E521CC0E9001200207A
:1009400070474FF0FF3070470FB4002300B589B0F7
:100950000CA900910B996FF00042CB601E4B0693DF
:100960001E4B07930423CDE901321D4A089202462B
:100970006B460020FFF762FE09B05DF814FB70B50E
:1009800086B006464FF0FF300091CDE9010100200E
:1009900015460C4604903246694604A8FFF7D4FF7A
:1009A00002460498211825B108B1084600E0204607
:1009B0002860049800280DD0002A02DD00988842A3
:1009C00008D0081B0094CDE901043246694604A80A
:1009D000FFF7BAFF06B070BD090900902709009023
:1009E000ED0D00902DE9FE4F804681EA0300C00F17
:1009F0000C46009021F0004123F00045B8EB0200C6
:100A0000A94105D24046214690461C460B46024667
:100A100023F00040104347D0270DC7F30A00C3F36B
:100A20000A510290401A019040286BDAC3F3130078
:100A300040F4801B0098924620B10023D2EB030AB9
:100A400063EB0B0B01985946C0F140025046FFF78B
:100A500027FF06460D4650465946019A00F0B4F964
:100A600010EB08006141002487EA115284EAE77321
:100A70001A4340D0009A62B3019A012A4FEA075202
:100A800015DC001B61EB02014FF0004202EA075245
:100A9000CDE90042001C41F5801132462B4600F0A2
:100AA00089FB03B0BDE8F08F40462146F9E7001B03
:100AB00061EB0201001C41F5801300185B41201816
:100AC000A2F5001747EB030140EAD570B6196D4156
:100AD00011E06D084FEA360645EAC0754FEA075245
:100AE000001B61EB0201001C41F5801149084FEA2F
:100AF00030000019514132462B4603B0BDE8F04F9B
:100B000000F049BB0098012240000023D0EB020214
:100B100063EBE073009821464FEAE074B8EB000005
:100B200061EB0401E9E783F000435BE781F00041FA
:100B300058E72DE9FE4F81EA030404F0004421F058
:100B4000004100944FF0000B23F0004350EA0104F1
:100B50005ED052EA03045BD0C3F30A54C1F30A55D2
:100B60002C44A4F2F3340194A0FB0254C1F313010A
:100B700041F48011C3F3130343F4801301FB0244D7
:100B800000FB034E840A970A44EA815447EA8357DC
:100B9000A4FB076802958D0A05FB07854FEA932C95
:100BA00004FB0C542705029D4FEA065847EA163706
:100BB000B5EB08056EEB070C870E920E47EA81171E
:100BC00042EA8312A7FB0201B6EB0B0164EB0004BF
:100BD0002B0D43EA0C335E1844EB1C50DA465146A9
:100BE000E7FB0201C5F313044FEA0B3343EA145346
:100BF0004FEA0432019C43EA0603A4F10C04029478
:100C0000009CCDE900B400F0D5FA03B0BDE8F08F48
:100C100000200146F9E72DE9F04D81EA030404F0D4
:100C2000004B21F0004514464FF0000A23F000412C
:100C300050EA050220D054EA01021DD0C5F30A573C
:100C40000246C5F31303C1F31300C1F30A5640F47F
:100C5000801543F48013A7EB0608101BD64608F254
:100C6000FD3873EB050002D308F1010801E092188A
:100C70005B41B8F1000F03DA00200146BDE8F08DBA
:100C800000204FF48011064684460EE0171B73EBDC
:100C9000050705D3121B63EB050306434CEA010C61
:100CA00049084FEA300092185B4150EA0107EDD144
:100CB00052EA030012D082EA040083EA05010843E5
:100CC00005D0101BAB4106D20122002306E0002212
:100CD0004FF0004302E06FF0010253101AEB0600E0
:100CE0004CEB085110EB0A0041EB0B01BDE8F04D55
:100CF00000F051BA0EB540F2334202920022CDE923
:100D00000022134600F056FA03B000BDC1F30A52A8
:100D1000C1F3130140F2FF3341F480119A4202DA29
:100D200000200146704740F233439A42A2F2334218
:100D300002DC5242FFF7C3BDFFF7B2BD30B5041E5F
:100D400071F1000404DB4FF00044404264EB010108
:100D5000141E73F1000405DB1C464FF000435242A1
:100D600063EB0403994208BF904230BD01F0004399
:100D700030B421F0004150EA010206D00A0DA2F57C
:100D80006072C1F31301002A02DC30BC00207047FE
:100D9000440F44EAC104C100E01830BC00EBC2506B
:100DA00000F0C2B9064C074D06E0E06840F00103D0
:100DB00094E8070098471034AC42F6D3FFF77AFA6C
:100DC000805E1390A05E1390202A06DBCB17203A9A
:100DD00041FA02F043EAE07306E041FA02F3D04040
:100DE000C2F120029140084319467047C0B24FF447
:100DF000F05100F02DBA00002DE9F34F8BB04FF009
:100E0000000801F10C000C464FF0010B46460DF1B5
:100E1000080A01906269012101989047051E2DD0B2
:100E2000252D2CD0216A8847C0B162690121019823
:100E30009047216A88470028F7D1411E62690198CE
:100E4000904700E0761CA1690B988847216A884783
:100E50000028F7D1E1690B988847DBE7A1690B9877
:100E600088470746A84201D1761CD3E7E1690B9871
:100E700088477F1C02D1B8F1000F6FD047E10027EF
:100E800062693D463946019890472A2804D1626933
:100E90000121019890470125DFF8889262690121BC
:100EA00001989047A0F130010A290AD24F45E5DCAC
:100EB00007EB870100EB4107303FDFD445F0100519
:100EC000ECE7E90601D46FF000476C280AD04C2803
:100ED00014D0682815D06A280DD074281CD07A2820
:100EE0001AD01DE062690121019890476C2802D058
:100EF00045F0040514E045F002050DE045F020053D
:100F00000AE06269012101989047682802D045F003
:100F1000080505E045F400656269012101989047E4
:100F2000C4E9015765283DD019DC58287AD00CDC7B
:100F3000452837D004DC252826D0412831D131E09E
:100F400046282FD047282CD12CE05B2877D0612869
:100F500028D063287CD0642823D15AE0D1E06F28C0
:100F600048D008DC66281DD067281BD0692821D00E
:100F70006E2816D127E0702845D0732868D07528D0
:100F800047D078280DD14DE0A1690B9888470546D8
:100F900025283FF469AFE1690B9888476D1C3FF441
:100FA0006AAFB4E023466A466FF001000B99FFF781
:100FB00045FB9FE045F040006060A80723464FF0E6
:100FC000000236D43EE0E8077FF447AF2068011DF9
:100FD00021600068290501D506701BE7290701D5A6
:100FE000068017E7A90703D5F117C0E9006111E7EB
:100FF00006600FE745F040006060A80723464FF009
:10100000080216D41EE040F60E0125EA01006060D9
:1010100016E045F040006060A80723464FF00A0242
:1010200007D40FE045F040006060A80708D52346CC
:1010300010226FF001000B99AFF300805AE007E037
:10104000234610226FF001000B99AFF3008051E0AE
:101050004FF000094F464B46632802D05B2807D06B
:1010600041E02079C00601D40120A06001273AE0C8
:1010700062690121019890475E2805D14FF001096E
:101080006269494601989047216939B900210A46A9
:10109000534643F82120491C0829FADBB0B32169E3
:1010A00069B9C11700EBD16253110AEB830122F039
:1010B0001F02821A01200B68904003430B60626993
:1010C0000121019890475D28E8D1B9F1000F09D0BE
:1010D0000020514651F82020D24341F82020401CE6
:1010E0000828F7DB02AB224600976FF001000B994E
:1010F000AFF3008000280CDA401C08D1BBF1000FD0
:1011000005D04FF0FF300DB0BDE8F08FFFE740464F
:10111000F9E7E90701D108F1010806444FF0000B97
:1011200078E60000CCCCCC0C0029A8BF7047401C4E
:10113000490008BF20F00100704710B4B0FA80FCED
:1011400000FA0CF050EA010404BF10BC704749B12A
:10115000CCF1200421FA04F411FA0CF118BF01219A
:1011600021430843A3EB0C01CB1D4FEA00614FEA7A
:10117000102042BF002010BC704700EBC350104449
:101180000029A4BF10BC7047401C490008BF20F0D4
:10119000010010BC704710B5141E73F1000408DA8A
:1011A000401C41F1000192185B411A4301D120F02B
:1011B000010010BD2DE9F04D92469B4611B1B1FAE8
:1011C00081F202E0B0FA80F220329046FFF768FB2D
:1011D00004460F4640EA0A0041EA0B0153465A46CC
:1011E000084313D0114653EA010019D0C8F1400258
:1011F0005046FFF764FB05460E46504659464246A8
:10120000FFF74EFB084305D0012004E02046394695
:10121000BDE8F08D0020054346EAE0762C433743D5
:101220000A986305E40AA0EB08000022FD0A44EADC
:1012300047540A3002D500200146E9E7010510199C
:101240006941DDE9084500196941BDE8F04DA2E7B3
:101250007F2801D9002208E0064A02EB5002C007AD
:10126000127800D1120902F00F02012090400840CC
:1012700070470000FC58139070B58C1810F8015B93
:1012800015F0070301D110F8013B2A1106D110F81F
:10129000012B03E010F8016B01F8016B5B1EF9D123
:1012A0002B0705D40023521E0DD401F8013BFAE7A9
:1012B00010F8013BCB1A921C03E013F8015B01F814
:1012C000015B521EF9D5A142D8D3002070BDFEE7C4
:1012D000014800F0E7BC0000200C0020014800F0AD
:1012E000E1BC0000980C0020014800F0DBBC0000CD
:1012F000A80B0020014800F0A1BA000088090020D6
:10130000294A016891423AD0274A1832914236D090
:10131000254A3032914232D0234A483291422ED06F
:10132000214A603291422AD01F4A7832914226D017
:101330001D4A9032914222D01B4AA83291421ED0BF
:101340001A4A91421BD0194A1832914217D0174AB3
:101350003032914213D0154A483291420FD0134A8D
:10136000603291420BD0114A7832914207D00F4A35
:101370009032914203D00D4AA832914211D1CAB2A3
:101380001823103AB2FBF3F26FF30901032A02F0BB
:101390000703074AD25CC26500D9091D816508466A
:1013A000704721F0FF01F9E71000024010040240ED
:1013B000A005039030B5224A012301689142CAB2C8
:1013C0001BD01F4C1434A14217D01D4C2834A1420D
:1013D00013D01B4C3C34A1420FD0194C5034A142C5
:1013E0000BD0174C6434A14207D0154C7834A1427D
:1013F00003D0134C8C34A1420CD11421114C083A67
:10140000B2FBF1F10F4A803201F01F0504EB8101BC
:10141000AB4010E00C4D1824103A0D44B2FBF4F12F
:10142000A82D00D80831094A01F01F0402EB810100
:10143000064AA3408032603080E80E0030BD0000D4
:101440000854025800580258F0FBFDBF0008024043
:1014500010B50279531E072B2DD8174C0168A142F5
:101460001BD0154C1434A14217D0134C2834A14280
:1014700013D0114C3C34A1420FD00F4C5034A14238
:101480000BD00D4C6434A14207D00B4C7834A142F0
:1014900003D0094C8C34A14203D10849074C443194
:1014A00002E00749064C443104EB8202C0E91B21EB
:1014B00001219940416710BD08540258FC58025858
:1014C000FC08024010B583694FF0C074826A01467F
:1014D000002053B1B3F5005F15D072B1012A0CD0D2
:1014E000022A0AD0032A09D104E01AB1012A06D03F
:1014F000022A03D1C96AC90100D5012010BDC96AF9
:10150000A142FAD010BD002AF7D0012AF2D0022A57
:10151000F3D0032AF3D010BD7047000070B508F077
:10152000F9FD294A29A1064608F0A8FD264A29A165
:101530003046403208F0A2FD234A28A130468032CE
:1015400008F09CFD204A27A13046C03208F096FDE5
:10155000264A27A1304608F091FD244A25A13046AD
:10156000403208F08BFD214A24A13046803208F039
:1015700085FD154C22A13046083C94ED010AB8EED9
:10158000C00B08F063FD304608F0B0FE054630465B
:1015900008F0E4FD06E06278501C60700A2A01D968
:1015A000002070BD1A48642317A229462CF0B2FF10
:1015B0000128F0D1284608F09FFE642001F006F9CA
:1015C00000F028F8012070BDD80200205353494490
:1015D00000000000505357520000000041505F537C
:1015E0005349440041505F5053575200D8030020E4
:1015F00041500000534552564552000049500000EA
:10160000504F5254000000004553505F4F4B0000B4
:10161000200B002070B50E4E00244FF47A7509E0BF
:10162000012001F0D3F8AC4204F1010402DD09A06D
:1016300005F078FC0121304601F0FEF90028EFD0DA
:10164000BDE87040054A0823074805A103F06ABBBE
:10165000000C0258CAA7B0DC310D0A00981A01200C
:101660004553505F52535400200B0020022001F0DC
:10167000C0B872B6FEE72DE9F041012417460D46C9
:10168000064604F0B1FF304600F060F8C0B904F03F
:10169000ABFFBB2005F020F8012811D16E1E0024FD
:1016A00009E0B44201D1002000E0012004F06CFF09
:1016B0003855641CE4B2AC42F3D304F0B9FF002403
:1016C00004F0B6FF2046BDE8F081000010B505F03B
:1016D00047F8134C00221021204601F0B2F90122F4
:1016E0002046082101F0ADF942F2107004F0B0FE7E
:1016F00000222046082101F0A4F90A4804F0A8FEBF
:1017000001222046082101F09CF9074804F0A0FEC0
:1017100005F012F8BDE8104044F6206004F098BED1
:1017200000100258F04902003057050070B50D4610
:10173000044604F059FF204600F008F810B9284686
:1017400004F0CAFF04F074FF002070BD10B5044619
:1017500004F04AFFBA2004F0BFFF012807D1200A95
:1017600004F0BAFF012802D1E0B204F0B5FF002076
:1017700010BD7047F0B590F86020012A22D0C1EB6F
:10178000C102012780F86070022380F8613000EB0D
:101790008202284D138F168EB2F83CC0D46A1B0506
:1017A000283244EA064643EA4C530A2C46EA03062A
:1017B0000AD0092C08D0137B46EA036349B10B2CED
:1017C0001AD01DE00220F0BDD36803F07F433343FD
:1017D000F4E701684C6AAC431C434C62016813682F
:1017E0008B6151680A2901D009291BD1D16802688F
:1017F00021F07F41916215E0118B0F4D43EA814347
:101800000168CC69AC431C43CC61016813680B616F
:1018100051680A2901D0092904D1D168026821F050
:101820007F411162002180F8617080F860100846E5
:10183000F0BD00000F0033FF0F003FFF2DE9F04720
:101840000446006800274FF004084FF0010946687D
:101850000568F10714D0E90512D5036823F48073F5
:101860000360606E40F0010060662068C0F8089078
:1018700084F8618084F86070616A09B12046884705
:10188000B00615D5A80413D520682022036823F4D8
:101890000053036020688260606E40F00200606662
:1018A00084F8618084F86070616A09B120468847D5
:1018B000300715D5280513D520680822036823F4BE
:1018C0000063036020688260606E40F00400606620
:1018D00084F8618084F86070616A09B120468847A5
:1018E00070070CD568050AD52068026822F480626A
:1018F00002602068C0F80880204600F071F8B00748
:1019000013D5A80511D520680222036823F40073BB
:10191000036020688260606E606684F8619084F87D
:101920006070216A09B120468847F00612D5E804A4
:1019300010D52068016821F48051016022681021CF
:101940009160616E616684F86190204684F86070F1
:10195000FFF70FFFBDE8F0872DE9F041040004D048
:1019600094F86100002518B107E00120BDE8F0817E
:10197000204684F8605000F035F8184E022084F8B4
:1019800061000123D4E90010D4F81CC040F2071212
:101990000F6840EA0C003740384308602068A769A8
:1019A000A168466B39439643314341632068E2683E
:1019B000016C6FF30F01114301642068218AA28A30
:1019C000466B090541EA425126F440121143416336
:1019D000656684F861300020C8E70000BFFFF8FFAB
:1019E0007047000008B500680B49884212D10B48C7
:1019F000016841F01001016000680022052100F03B
:101A0000100000905A2001F0CFFABDE808405A209B
:101A100001F0BCBA08BD0000001000523445025865
:101A20002DE9F05F28B190F83510022904D080210B
:101A300041650120BDE8F09F904C904B0168183C37
:101A400018338E4ADFF83C92A1428D4CDFF838E221
:101A50008E4FDFF83CB2DFF83CA28F4D8F4E31D075
:101A600091422FD099422DD0A1422BD0494529D067
:101A7000714527D0B94225D0DFF810C20CF1180CFF
:101A800061451FD0DFF808C2ACF1600C614519D088
:101A9000DFF8FCC1ACF1480C614513D0DFF8F0C1B0
:101AA000ACF1300C61450DD0DFF8E4C1ACF1180C9D
:101AB000614507D0594505D0514503D0A94201D011
:101AC000B1422CD1DFF8B4C14FF0040880F8358062
:101AD000ACF1180C61451DD091421BD0994219D030
:101AE000A14217D0494515D0714513D0B94211D044
:101AF0006648183081420DD065486038814209D06F
:101B000063484838814205D061483038814201D06D
:101B10005F481838086820F001000860ABE0D1F891
:101B200000C02CF00E08DFF854C1C1F80080ACF101
:101B3000180C0168614527D0914225D0994223D0E5
:101B4000A14221D049451FD071451DD0B9421BD0BB
:101B5000DFF838C10CF1180C614515D0DFF830C141
:101B6000ACF1600C61450FD0DFF824C1ACF1480C3A
:101B7000614509D0DFF818C1ACF1300C614503D0E4
:101B8000DFF80CC1ACF1180CD1F800C02CF0010C3E
:101B9000C1F800C0DFF8E4804FF0010C0168A8F143
:101BA0001808414546D0914244D0994242D0A142C2
:101BB00040D049453ED071453CD0B9423AD0334A35
:101BC0001832914236D0324A603A914232D0304A8D
:101BD000483A91422ED02E4A303A91422AD02C4A8D
:101BE000183A914226D0594524D0514522D0A942D5
:101BF00020D0B1421ED02A4A91421BD0284A14322A
:101C0000914217D0264A2832914213D0244A3C32BE
:101C100091420FD0224A503291420BD0204A643276
:101C2000914207D01E4A7832914203D01C4A8C322E
:101C3000914218D1016E0A6822F480720A6090F80D
:101C40005C20816D02F01F020CFA02F24A60D0E9BA
:101C500019124A60C16E31B10A6822F480720A60BA
:101C6000D0E91C124A600022016D80F835C080F86E
:101C7000342001B188470020DCE600002800024043
:101C8000580002407000024088000240A00002405C
:101C90007004024088040240A0040240B8040240DC
:101CA000085402582DE9FC5F0446F74E0020DFF887
:101CB000D88300904FF41652F44808F11808A56D27
:101CC000DFF8C493DFF8C0A3016809F13009206888
:101CD0000AF1480AB1FBF2F1B04201912F68D5F840
:101CE00000C0DFF8ACB335D04146884232D0484519
:101CF00030D050452ED058452CD0E5491831884277
:101D000028D0E3493031884224D0E1494831884223
:101D100020D0E04988421DD0DE491831884219D0D0
:101D2000DC493031884215D0DA494831884211D037
:101D3000DFF860E30EF1600E70450BD0D54A7832C3
:101D4000904207D0D34B9033984203D0D149A83169
:101D500088427DD194F85C20082102F01F0201FA2C
:101D600002F23A424AD0B04232D0404530D04845E3
:101D70002ED050452CD058452AD0C54A1832904212
:101D800026D0C34A3032904222D0C14A48329042D3
:101D90001ED0C04A90421BD0BE4A1832904217D083
:101DA000BC4A3032904213D0BA4A483290420FD0E7
:101DB000B84A603290420BD0B64A7832904207D08F
:101DC000B44A9032904203D0B24AA832904203D132
:101DD000026802F0040202E0026802F008026AB13E
:101DE000026822F00402026094F85C0000F01F0018
:101DF0008140A960606D40F00100606594F85C006E
:101E0000012100F01F008140394240D02068B042DB
:101E100034D0404532D0484530D050452ED058457A
:101E20002CD09B4A1832904228D0994A30329042A6
:101E300024D0974A4832904220D0964A90421DD0F2
:101E4000944A1832904219D0924A3032904200E0BF
:101E5000AFE113D08F4A483290420FD08D4A6032A2
:101E600090420BD08B4A7832904207D0894A903208
:101E7000904203D0874AA83290427DD1406910F049
:101E8000800F04D0A960606D40F00200606594F896
:101E90005C00042100F01F00814039423ED02068E0
:101EA000B04232D0404530D048452ED050452CD09D
:101EB00058452AD0764A1832904226D0744A303299
:101EC000904222D0724A483290421ED0714A9042CB
:101ED0001BD0704A1832904217D06E4A303290426E
:101EE00013D06C4A483290420FD06A4A6032904216
:101EF0000BD0684A7832904207D0664A90329042BE
:101F000003D0644AA83290424ED1006810F0020F0C
:101F100004D0A960606D40F00400606594F85C0036
:101F2000102100F01F008140394258D02068B04293
:101F300034D0404532D0484530D050452ED0584559
:101F40002CD0534A1832904228D0514A3032904215
:101F500024D04F4A4832904220D04E4A90421DD061
:101F60004C4A1832904219D04A4A3032904215D029
:101F7000484A4832904200E014E00FD0454A6032AF
:101F800090420BD0434A7832904207D0414A903277
:101F9000904203D03F4AA832904207D1006800F037
:101FA000080006E0006872E70068B7E7006800F024
:101FB0000400A0B1A96020680168490304D5006845
:101FC000000308D5A16C07E00168C90503D40168C6
:101FD00021F008010160216C09B12046884794F87E
:101FE0005C00202100F01F008140394279D0206838
:101FF000B04232D0404530D048452ED050452CD04C
:1020000058452AD0224A1832904226D0204A3032EF
:10201000904222D01E4A483290421ED01D4A904221
:102020001BD01C4A1832904217D01A4A30329042C4
:1020300013D0184A483290420FD0164A603290426C
:102040000BD0144A7832904207D0124A9032904214
:1020500003D0104AA832904203D1006800F010006B
:1020600002E0006800F00200B0B3A96094F8350007
:102070000428206801680FD049037ED5006800035A
:102080002BD4616C2AE000001000024030000020D8
:10209000700002401004024021F016010160206827
:1020A000416921F080014161206C08B9A06C20B128
:1020B0002068016821F00801016094F85C303F213C
:1020C000012003F01F0300229940A96084F8350025
:1020D00084F83420216D65E003E0E16B09B120460E
:1020E0008847606D00287DD0606DC00759D020689A
:1020F000042184F83510B0422BD0404529D0484502
:1021000027D0504525D0584523D0AD49884220D00E
:10211000AB49183188421CD0A9493031884218D0C7
:10212000A849884215D0A7491831884211D0A5493D
:10213000303188420DD0A3494831884209D0A149A5
:102140006031884205D09F497831884201D09D494D
:102150009031016821F00101016020680099019A25
:10216000491C0091914202D80168C907F6D1006864
:10217000C00710D003200FE0FFE70168C905ACD409
:1021800003680121002223F01003036084F8351056
:1021900084F83420A1E7012084F83500002084F879
:1021A0003400E16C00291DD002B02046BDE8F05F8C
:1021B0000847854988423CD083491431884238D049
:1021C00081492831884234D07F493C31884230D01F
:1021D0007D49503188422CD07B496431884228D0D7
:1021E000794900E0A4E07831884222D076498C31E8
:1021F00088421ED0754988421BD0744914318842E8
:1022000017D072492831884213D070493C31884236
:102210000FD06E49503188420BD06C4964318842EE
:1022200007D06A497831884203D068498C318842A6
:102230007ED194F85C800427016808F01F0807FA33
:1022400008F717EA0C0F009746D04F0744D50098BF
:102250000F04686003D5C8033CD4A16CA2E78806CC
:1022600038D42068B0422DD055496039884229D0F1
:10227000484527D0504525D0584523D0504988425D
:1022800020D04F49183188421CD04D493031884206
:1022900018D04C49884215D04A491831884211D08B
:1022A0004849303188420DD046494831884209D0EA
:1022B000704507D0904205D0984203D04149A831DB
:1022C000884203D1016821F0080102E0016821F091
:1022D00004010160216C65E7022707FA08F717EA95
:1022E0000C0F00974ED08F074CD500980F046860F4
:1022F00003D5C80344D4616C54E7880640D42068F1
:10230000B0422FD02E49603988422BD0484529D081
:10231000504527D0584525D02949884222D0284900
:10232000183188421ED02649303188421AD000E048
:1023300043E02449884215D022491831884211D0FF
:102340002049303188420DD01E494831884209D099
:10235000704507D0904205D0984203D01949A83162
:10236000884203D1016821F0140102E0016821F0E4
:102370000A010160012184F83510002084F834003E
:10238000E16B0FE7082202FA08F212EA0C0F14D0F0
:10239000090712D5016821F00E01016094F85C1064
:1023A0000120002201F01F0100FA01F1696060655F
:1023B00084F8350084F83420F3E6BDE8FC9F000083
:1023C0008800024010040240082C024808540258B9
:1023D0002DE9F05F044600F039FB002C07467DD064
:1023E000F14E022120684FF00308DFF8C0934FF050
:1023F0000005DFF8BCA3B042DFF8B8B334D0EA4A36
:102400001832904230D048452ED050452CD05845F7
:102410002AD0E84A1832904226D0E64A303290421A
:1024200022D0E44A483290421ED0E34A90421BD068
:10243000E14A1832904217D0DF4A3032904213D02E
:10244000DD4A483290420FD0DB4A603290420BD0D6
:10245000D94A7832904207D0D74A9032904203D07E
:10246000D54AA83290427DD184F83510B04284F824
:1024700034502ED0CC49183188422AD0484528D033
:10248000504526D0584524D0CA491831884220D01A
:10249000C849303188421CD0C6494831884218D0DA
:1024A000C549884215D0C4491831884211D0C24963
:1024B000303188420DD0C0494831884209D0BE49E8
:1024C0006031884205D0BC497831884201D0BA4990
:1024D0009031016821F00101016008E043E100BF93
:1024E00000F0B4FAC01B052801D9202138E120688A
:1024F0000068C007F4D104F108002168D4E9053C64
:102500008E4685C809681043D4E907281F43636ACB
:102510003843AA4F40EA0C001043394040EA080013
:10252000042B40EA010003D1D4E90B121143084304
:102530006168A1F12902052A0BD9163A032A08D9A4
:10254000083A012A05D9083A032A02D9743903291D
:1025500001D840F48010CEF800002068676A406916
:10256000042F00E01FE020F0070047EA00070DD12C
:10257000D4E90A01074349B12046FEF7A3FF28B179
:1025800040206065012184F83510ECE02068476147
:102590002046FEF7B5FE94F85C203F2102F01F02B2
:1025A0009140816074E0864A90423AD0844A143265
:1025B000904236D0824A2832904232D0804A3C3211
:1025C00090422ED07E4A503290422AD07C4A6432C9
:1025D000904226D07A4A7832904222D0784A8C3281
:1025E00090421ED0774A90421BD0764A14329042D5
:1025F00017D0744A2832904213D0724A3C3290422B
:102600000FD0704A503290420BD06E4A64329042E2
:1026100007D06C4A7832904203D06A4A8C3290429A
:102620007ED1684A84F8351084F83450664B0168CE
:10263000A26801EA030E402A73D0802A72D00022D9
:10264000D4E90378D4E9053142EAD70242EAD8084E
:102650005C4AD4E9077C48EAD30848EAD10141EA58
:10266000D701524241EA1C11142341EA0E010160D4
:1026700020681044B0FBF3F08000E0652046FEF7D0
:102680003FFE94F85C20012102F01F02914041605E
:102690002068B04257D044491831884253D0484549
:1026A00051D050454FD058454DD0424918318842FD
:1026B00049D040493031884245D03E49483188426E
:1026C00041D03D4988423ED03B49183188423AD0FA
:1026D00039493031884236D037494831884232D082
:1026E0003549603188422ED03349783188422AD02A
:1026F00031499031884226D02F49A831884222D0D2
:10270000304988421FD02F49143188421BD02D49AF
:102710002831884217D02B493C31884213D002E03F
:102720001DE017E018E02749503188420BD02549B9
:102730006431884207D023497831884203D0214947
:102740008C31884229D12046FEF734FEA0688028CB
:102750000CD00CE0102273E74FF4804270E7402168
:10276000616584F835800120BDE8F09F6560216EC9
:1027700020790860D4E9190141606068401E07288B
:1027800008D82046FEF764FEE06E0560D4E91C011F
:10279000416002E0E566256765670120656584F8AC
:1027A00035000020E0E70000100002404000024039
:1027B0005800024070000240100402403F8010FEAA
:1027C000082C0248085402580F00FEFF70B504465A
:1027D00000F03CF90546601C02D00448007804442F
:1027E00000F034F9401BA042FAD370BD2400002051
:1027F00070474FF0B04110B5D1F88820024203D0A5
:10280000C1F88800FFF7F4FF10BD00002DE9F84F74
:1028100003247D4D00234FF001094FF0B04B4FF0E2
:102820000F0AE9E009FA03F73A4076D00E7906F08C
:102830000306012E01D0022E18D1D0F808C04FEAAD
:10284000430ECE6804FA0EF82CEA080C06FA0EF6CF
:1028500046EA0C068660D0F804C00E792CEA070C14
:10286000C6F300169E4046EA0C0646600E79F64313
:10287000B6070BD0C6684FEA43088F6804FA08FC15
:1028800026EA0C0607FA08F73743C7600E7906F008
:102890000306022E12D1DE080F694FEA437C00EBDB
:1028A0008606B646366A4FEADC6C0AFA0CF807FA76
:1028B0000CF726EA08063743CEF820700F79066831
:1028C0004FEA430807F0030704FA08FC07FA08F781
:1028D00026EA0C06374307604E6816F4403F1CD0CA
:1028E0004A4E376847F00207376036689F0706F0A0
:1028F0000206009623F0030606F1B046B6463F0FE7
:10290000D6F80864DFF808810AFA07FC404526EA91
:102910000C0603D14FF0000C41E06CE0DFF8F4C08E
:10292000604502D14FF0010C39E0DFF8ECC06045A2
:1029300002D14FF0020C32E0DFF8E0C0604502D176
:102940004FF0030C2BE0DFF8D8C0604502D14FF008
:10295000040C24E0DFF8CCC0604502D14FF0050C38
:102960001DE0DFF8C4C0604502D14FF0060C16E050
:10297000DFF8B8C0604502D14FF0070C0FE0DFF878
:10298000B0C0604502D14FF0080C08E0DFF8A4C0E9
:10299000604502D14FF0090C01E04FF00A0C0CFA2F
:1029A00007FC4CEA060CCEF808C44F68DBF8006060
:1029B000FF0226EA020600D516435F46CBF8006008
:1029C000D1F804C0DBF804605FEA8C2C26EA02062A
:1029D00000D516437E606E684F6826EA0206BF0384
:1029E00000D516436E602E684F6826EA0206FF0384
:1029F00000D516432E605B1C0A6832FA03F67FF49A
:102A000011AFBDE8F88F000080000058544502580F
:102A1000000002580004025800080258000C025836
:102A2000001002580014025800180258001C0258E6
:102A300000200258002402580069084000D00120FC
:102A400070470AB1816170470904FBE7014880685B
:102A50007047000024000020024881680278114479
:102A60008160704724000020032010B500F0BCFAFC
:102A700001F094FA0F4A104914681368C4F3032252
:102A800003F00F038A5CC95C02F01F0201F01F0112
:102A9000D0400A4A20FA01F11160094908600F206C
:102AA00000F010F808B1012010BD00F05DFA002020
:102AB00010BD000018440258D005039034000020D7
:102AC0003000002010B5102804468AB02AD2002217
:102AD0000146762000F068FA762000F057FA154893
:102AE00004601548016841F480210160006808A96C
:102AF00000F480200990684601F0DCF901F03CFA0E
:102B00000E49400000220E4CB0FBF1F10D4840F29E
:102B1000E7330460C0E90332491EC0E9011202F044
:102B20000CFA10B101200AB010BD064802F038FAC4
:102B3000F9E70000280000205045025840420F00ED
:102B400000480140A40D00202DE9F041044690F812
:102B5000A00016460F4601281DD0012584F8A0507C
:102B6000022084F8A10006EB860000EBC6003422A8
:102B700004EB80003830FDF74EFC324639462046E3
:102B800002F050FD216800204D6284F8A15084F8C5
:102B9000A000BDE8F0810220FBE770472DE9F0417D
:102BA0000446006800274FF00408856B466B6907F0
:102BB00015D5710713D5426B22F0040242632068D9
:102BC000C0F83C80D4F8A40040F00100C4F8A40090
:102BD00084F8A180204684F8A070FFF7DEFFA807E4
:102BE00016D5B00714D520680222436B23F00203E8
:102BF00043632068C263D4F8A40040F00200C4F824
:102C0000A40084F8A180204684F8A070FFF7C5FFD7
:102C100005EA06004FF00108C0070ED021684A6B94
:102C200022F001024A632168C1F83C8084F8A18047
:102C3000204684F8A07000F091F8280710D53007DE
:102C40000ED520680822436B23F0080343632068F5
:102C5000C26384F8A180204684F8A07000F034F9A3
:102C6000BDE8F0812DE9F041040004D094F8A10002
:102C7000002518B107E00120BDE8F081204684F866
:102C8000A05000F06DF83448022184F8A110012210
:102C900002CC8B6923F070438B6194E84A0019439E
:102CA000E3681E4354F8043D31439E693143996102
:102CB00021688B6803408B602168A68AA7698B68AE
:102CC0003B4343EA06438B602168CB680340CB60FB
:102CD0002168A38B276ACE683E4346EA0346CE604E
:102CE00021680B6903400B612368A68CA76A1969E8
:102CF000394341EA0641196121684B6903404B6140
:102D00002068A38D266B4169314341EA034141614B
:102D1000236894F8351094F83600DE6A000406F053
:102D20007F46DE62236840EA012094F83460D96A65
:102D300031430143D9622068416B41F00601416390
:102D40002068816941F001018161C4F8A45084F8D0
:102D5000A120002090E7000000F800F0704700007C
:102D60002DE9F041B6B00446142130A8FDF76CFB04
:102D7000C0216846FDF768FB4C49206888427DD138
:102D80000DF128084004002102240D4604222B23C3
:102D900088E81C008714CDE90F7108261191CDE950
:102DA00000016846CDE90D4600F0B0FA08B1FEF723
:102DB00060FC3F48016841F008010160006800F0D4
:102DC000080035903A48001F016841F00401016095
:102DD000016801F004013591016841F001010160D1
:102DE000016801F001013591016841F002010160C3
:102DF000016801F002013591016841F010010160A4
:102E0000016801F010013591016841F0080101608D
:102E1000006830A9032600F0080035900E27C12075
:102E200081E8F1002348FFF7F1FC30A9EA2081E8AE
:102E3000F1002148FFF7EAFC0920DFF88080CDE9A6
:102E40003064329530A9CDE933604046FFF7DEFCAF
:102E500030A94FF4784081E8F1001948FFF7D6FC1B
:102E600030A94FF4706081E8F1004046FFF7CEFCD6
:102E700030A94FF4896081E8F10000E012E01148C8
:102E8000FFF7C4FC00220521582000F08DF85820DF
:102E900000F07CF800220521592000F085F8592027
:102EA00000F074F836B0BDE8F0810000001000506A
:102EB0004445025800080258000002580004025815
:102EC00000100258000C025870470000F0B5154C75
:102ED0004378211D0A1D23600378F3B143680B601A
:102EE000057BC67A817A437B2D07847B45EA06659C
:102EF000C77B90F809C0067A90F800E045EAC14027
:102F000040EA834040EA444040EA074040EA0C205F
:102F100040EA460040EA0E0001E000200860106030
:102F2000F0BD000098ED00E0BFF35F8F0448002182
:102F30000368034A23F480330360703211607047E2
:102F400024ED00E0074A40F00100064970321060AD
:102F5000086840F480300860BFF34F8FBFF36F8F75
:102F60007047000024ED00E0074882B0016841F09E
:102F700002010160006800220F2100F002000090B1
:102F8000901E02B000F010B854450258002809DB2A
:102F9000410900F01F028900012001F1E021904069
:102FA000C1F80001704700000E4BF0B41B680D46DD
:102FB000C3F30223C3F10706042E00D90426191D0A
:102FC000072901D2002300E0DB1E012404FA06F1E8
:102FD0009C40491E2940641E994014402143F0BC86
:102FE00003F0C4BF0CED00E0064900F0070210B585
:102FF0004FF6FF040868044B204040EA02201843C3
:10300000086010BD0CED00E00000FA05134970B532
:103010000A68D243520705D5096801F007018142C9
:1030200013D118E00A6822F0070202430A60FFF792
:103030000DFD0A4D4FF47A760446083D07E000BFC7
:10304000FFF704FD001BB04201D9012070BD2868C4
:10305000C0438004F4D4002070BD00000C48025826
:1030600010B500F055FF05490968054AC1F3021182
:10307000515C01F01F01C84010BD000020440258FF
:10308000D0050390494930B5484C0B1D0A681434EB
:1030900009681D68246802F00303C5F30012C1F338
:1030A0000531C4F3CC04002914FB02F200EE102A0F
:1030B000F8EE400A75D03F4A9FED3D1AB7EE000A80
:1030C0006BB1DFED3D1A012B01D0022B64D002EE73
:1030D000101A1168F8EE422A81EEA22A21E0334C40
:1030E000283C23689B0612D5344B246801EE901AC5
:1030F0001168C4F3C104F8EE612AE34001EE903A8E
:10310000C1F30801F8EE611A81EEA22A0BE001EE8C
:10311000901ADFED2B2A00BFF8EE611A116882EEDB
:10312000A12AC1F3080101EE901A1168F8EE611AA4
:1031300040EE811A71EE800A62EE200AC1F3462148
:1031400001EE101AB8EE411A31EE001AC0EE811AE3
:10315000BCEEE11A80ED001A1168C1F3064101EEE0
:10316000101AB8EE411A31EE001AC0EE811ABCEE08
:10317000E11A80ED011A1168C1F3066101EE101A1F
:10318000B8EE411A31EE000A80EE801ABCEEC10A98
:1031900080ED020A30BD04E001EE901ADFED092A4D
:1031A000BAE70021016041608160F3E728440258DA
:1031B00000000039384402580024744A0090D003BB
:1031C0000024744C20BCBE4B494930B5484C0B1D03
:1031D0000A681C3409681D68246802F00303C5F3FB
:1031E0000022C1F30551C4F3CC04002914FB02F200
:1031F00000EE102AF8EE400A75D03F4A9FED3D1AC6
:10320000B7EE000A6BB1DFED3D1A012B01D0022BA6
:1032100064D002EE101A1168F8EE422A81EEA22A5A
:1032200021E0334C283C23689B0612D5344B24689C
:1032300001EE901A1168C4F3C104F8EE612AE3406C
:1032400001EE903AC1F30801F8EE611A81EEA22A6C
:103250000BE001EE901ADFED2B2A00BFF8EE611AA9
:10326000116882EEA12AC1F3080101EE901A1168DB
:10327000F8EE611A40EE811A71EE800A62EE200AC1
:10328000C1F3462101EE101AB8EE411A31EE001AD0
:10329000C0EE811ABCEEE11A80ED001A1168C1F38C
:1032A000064101EE101AB8EE411A31EE001AC0EED6
:1032B000811ABCEEE11A80ED011A1168C1F30661B2
:1032C00001EE101AB8EE411A31EE000A80EE801AB3
:1032D000BCEEC10A80ED020A30BD04E001EE901A96
:1032E000DFED092ABAE70021016041608160F3E760
:1032F0002844025800000039404402580024744A0F
:103300000090D0030024744C20BCBE4B2DE9FE4F2E
:103310000546DFF8F88350F8081B0024FB4FC9432B
:10332000019005F12800264608F1240800900801C4
:103330001DD4E86E50B1B0F5801F0CD0B0F5001F61
:103340000ED0B0F5401F1ED001240FE0386840F4C5
:103350000030386017E00198022102F0C9FC03E058
:103360000098022102F054FD04000CD02646288863
:10337000C043C00523D4A86D05281ED2DFE800F0A5
:103380000C11161B1B00EA6ED8F8001021F4401136
:103390001143C8F80010EAE7386840F4003038609C
:1033A00009E00198002102F0A3FC03E0009800214D
:1033B00002F02EFD044684B100E001242646288850
:1033C000C04380052BD4E86DC02826D00EDCA8B100
:1033D000402818D080280FD11AE0AA6DD8F8001024
:1033E00021F007011143C8F80010E8E7B0F5807F2D
:1033F00013D0B0F5A07F10D001240FE0386840F45E
:103400000030386009E00198002102F071FC03E00F
:103410000098002102F0FCFC04468CB12646288866
:10342000C04340052ED4286EB0F5C06F28D010DC04
:10343000B8B1B0F5007F19D0B0F5806F0FD11AE0A8
:10344000EA6DD8F8001021F4E0711143C8F80010BB
:10345000E5E7B0F5006F13D0B0F5206F10D0012470
:103460000FE0386840F40030386009E0019800212E
:1034700002F03EFC03E00098002102F0C9FC044683
:1034800094B126462868DFF884B2C0430BF1200BC4
:1034900080011ED4E86CD0B110280ED0202811D0A5
:1034A000302814D0012413E02A6ED8F8001021F43B
:1034B00060611143C8F80010E4E7386840F4003058
:1034C000386004E00198022102F012FC044674B155
:1034D00026462888C043C0042BD4686EB0F5005F30
:1034E00020D00DDCA0B1B0F5805F0FD115E0EA6C03
:1034F000DBF8001021F030011143CBF80010E8E7B1
:10350000B0F5405F13D0B0F5804F10D001240FE02C
:10351000386840F40030386009E00198002102F07A
:10352000E7FB03E00098002102F072FC04468CB136
:1035300026462888C043800429D4A86EB0F5403FB1
:1035400023D010DC08B3B0F5803F14D0B0F5003FB5
:103550000FD115E06A6ED8F8001021F4E041114354
:10356000C8F80010E5E7B0F5802F0ED0B0F5A02F19
:103570000BD001240AE00198012102F0B9FB03E01D
:103580000098012102F044FC044674B126462888C4
:10359000DFF878A1C0430AF12C0A400425D4D5F8FD
:1035A000B00030F0704109D01DE0AA6ED8F80010CC
:1035B00021F4E0211143C8F80010E8E700170728BC
:1035C00011D2DFE800F00E04090E0E0E0E00019875
:1035D000012102F08DFB03E00098012102F018FCAC
:1035E000044684B100E0012426462888C043000434
:1035F0001FD4A86FD8B1B0F1805F0ED0B0F1005FDA
:1036000010D0012414E0D5F8B020DAF8001021F031
:10361000E0411143CAF80010E7E7386840F4003091
:10362000386004E00198012102F062FB044674B1A5
:1036300026462868C043C0011ED4A86CD0B101281A
:103640000ED0022811D0032814D0012413E0AA6F51
:10365000D8F8001021F040511143C8F80010E8E7F5
:10366000386840F40030386004E00198022102F02C
:103670003FFB04466CB126462868C043400255D43F
:103680002348016841F480710160FFF7DFF981464A
:103690000EE0AA6CDBF8001021F003011143CBF817
:1036A0000010E9E7FFF7D2F9A0EB090064283BD846
:1036B00017480068C005F5D564BBDFF85090B5F831
:1036C000B41009F14409D9F8000001F4407100F484
:1036D0004070884211D0D9F80010D9F8002021F4A8
:1036E000407142F48032C9F80020D9F8002022F459
:1036F0008032C9F80020C9F80010D5F8B400B0F540
:10370000807F1ED1FFF7A2F9029016E02C440258E8
:103710000048025809E000BFFFF798F90299411AE2
:1037200041F28830814208D9032426462878DFF800
:103730001494C043C00721D03DE0D9F800008007B1
:10374000EAD5D5F8B410C1F301200328FE480DD006
:10375000016821F47C510160B5F8B420D9F800105B
:10376000C2F30B021143C9F80010DFE7F74A036800
:1037700002EA111223F47C511143ECE7D5F88400DE
:10378000182816D005DCA0B1082808D0102804D1CC
:103790000AE020280DD028280BD001240AE0019847
:1037A000012102F0A5FA03E00098012102F030FBAC
:1037B00004466CB126462878C043800720D4D5F84B
:1037C000800006281AD2DFE800F0170D121717172D
:1037D000D5F88420D9F8001021F038011143C9F838
:1037E0000010E8E70198012102F082FA03E0009856
:1037F000012102F00DFB04467CB100E001242646C5
:103800002878C043400720D4D5F89C0006281AD257
:10381000DFE800F0170D12171717D5F88020D9F838
:10382000001021F007011143C9F80010E8E70198E2
:10383000012102F05DFA03E00098012102F0E8FAAC
:103840000446A4B100E0012426462878C04380063F
:103850002BD4D5F89800B0F1405F24D011DC10B320
:10386000B0F1805F15D0B0F1005F10D116E0D5F84F
:103870009C20DAF8001021F007011143CAF800106B
:10388000E3E7B0F1804F0ED0B0F1A04F0BD0012490
:103890000AE00198002102F02BFA03E000980221CF
:1038A00002F0B6FA044694B126462878C043400692
:1038B0002BD4D5F8A400B0F5406F24D011DC10B3A0
:1038C000B0F5806F15D0B0F5006F10D116E0D5F8C7
:1038D0009820D9F8001021F0E0411143C9F80010F8
:1038E000E3E7B0F5805F0ED0B0F5A05F0BD0012408
:1038F0000AE00198002102F0FBF903E000980221A0
:1039000002F086FA044694B126462878C0430006A1
:103910002BD4D5F8A800B0F5C04F24D011DC10B3DB
:10392000B0F5005F15D0B0F5804F10D116E0D5F896
:10393000A420DAF8001021F4E0511143CAF8001075
:10394000E3E7B0F5004F0ED0B0F5204F0BD00124C7
:103950000AE00198002102F0CBF903E0009802216F
:1039600002F056FA044654B126462878C0430007B0
:103970001ED4D5F88C00B0F5805F0AD00FE0D5F8E2
:10398000A820DAF8001021F460411143CAF80010B1
:10399000EBE70098022102F03BFA00B10126D5F8CE
:1039A0008C20D9F8001021F440511143C9F80010BF
:1039B0002878C043C00613D4D5F8A000B0F5807FA6
:1039C00005D10098022102F023FA00B10126D5F8B2
:1039D000A020DAF8001021F440711143CAF8001059
:1039E0002868C043000316D4D5F8AC0038B1B0F550
:1039F000803F09D0B0F5003F0BD001240AE00198C8
:103A0000002102F075F903E00098022102F000FAAB
:103A100004468CB126462868C043400322D4D5F81A
:103A20009000B0F5801F11D0B0F5001F13D0B0F595
:103A3000401F15D0012414E0D5F8AC20DAF80010AE
:103A400021F440311143CAF80010E4E7386840F42B
:103A50000030386004E00098012102F0D9F90446F2
:103A60005CB126462868C043C0031CD4286D70B1E1
:103A7000B0F5803F10D0012414E0D5F89020D9F89B
:103A8000001021F440111143C9F80010EAE738682A
:103A900040F40030386004E00198022102F028F977
:103AA0000446E4B126462868C043800005D4009847
:103AB000022102F0ADF900B101262868C04380035D
:103AC0001CD4D5F88800B8B1B0F5807F10D0B0F51F
:103AD000007F11D0B0F5407F0ED001240DE02A6D9B
:103AE000DBF8001021F480311143CBF80010DAE745
:103AF000386840F4003038601CB326462868C0435C
:103B0000C00207D4EA6FD8F8001021F00041114339
:103B1000C8F800102868C043800207D42A6FD8F87C
:103B2000001021F080711143C8F800102888C043AC
:103B300000050FD46A6FDAF8001021F0006111431C
:103B400006E035E05444025810440258CFFFFF000D
:103B5000CAF800102868C043400009D43D480168F5
:103B600021F4004101600168D5F8B82011430160DB
:103B70002868C04307D46A6DDBF8001021F040517B
:103B80001143CBF800102868C043000208D4D5F8D0
:103B90009420D9F8001021F440011143C9F8001015
:103BA00028790024C04300F0010020430AD00FE030
:103BB000D5F88820D9F8001021F440711143C9F8D4
:103BC00000109BE70198002102F092F800B1064630
:103BD0002879C04300F00200204305D1019801215B
:103BE00002F086F800B106462879C04300F00400D0
:103BF000204305D10198022102F07AF800B106466F
:103C00002879C04300F00800204305D10098002126
:103C100002F0FEF800B106462879C04300F010001B
:103C2000204305D10098012102F0F2F800B10646C8
:103C30002879C04300F02000044304D100980221F9
:103C400002F0E6F800B916B10120BDE8FE8F0020B1
:103C5000FBE70000104402582DE9F05F04000F4616
:103C60007ED0DFF83882D8F8000000F00F00B842AC
:103C70000CD2D8F8001021F00F013943C8F8001019
:103C8000D8F8000000F00F00B84269D12078844DC8
:103C900040070AD52069296801F07001884204D9DB
:103CA000296821F070010143296020787C4E361D7F
:103CB00000070AD56069316801F07001884204D9B3
:103CC000316821F07001014331602078C0060AD5C7
:103CD000A069316801F4E061884204D9316821F4B7
:103CE000E061014331602078DFF8B4B180060BF168
:103CF000080B0CD5E1695846DBF8002002F0700291
:103D0000914204D9026822F070020A4302602078CE
:103D100080070AD5E068296801F00F01884204D9BC
:103D2000296821F00F01014329602078C0073ED0A7
:103D30005B49A2682868183920F470601043286035
:103D40006068022818D0032819D00968012819D002
:103D5000490700294ADADFF848A1AAF1080A00E079
:103D600044E0DAF8002022F007020243CAF80020FB
:103D7000FEF76CFE814612E009688903E9E70968ED
:103D80008901E6E7C905E4E7FEF760FEA0EB09015B
:103D900041F28830814202D90320BDE8F09F61687A
:103DA000DAF8000000F03800B0EBC10FECD1207859
:103DB00080070AD5E068296801F00F01884204D223
:103DC000296821F00F0101432960D8F8001040460E
:103DD00001F00F01B9420BD9016821F00F013943FD
:103DE0000160006800F00F00B84201D00120D4E764
:103DF000207840070AD52069296801F070018842BF
:103E000004D2296821F0700101432960207800075D
:103E10000AD56069316801F07001884204D23168C6
:103E200021F07001014331602078C0060AD5A069F5
:103E3000316801F4E061884204D2316821F4E06124
:103E400001433160207880060CD5E1695846DBF8E3
:103E5000002002F07002914204D2026822F0700247
:103E60000A43026000F09AF80E492A682B68C2F3F0
:103E7000032203F00F038A5CC95C02F01F0201F009
:103E80001F01D040084A20FA01F11160074908607B
:103E900007480068BDE8F05FFEF714BE002000523E
:103EA00018440258D0050390340000203000002050
:103EB0002800002070B5144C3F220260124A24688A
:103EC0000832131D114D04F00704446016681C1DD0
:103ED00006F470668660166806F00F06C660126803
:103EE00002F0700202611A6802F0700242611A6800
:103EF00002F4E0628261226802F07002C261286806
:103F000000F00F00086070BD1044025800200052FD
:103F100030B500F043F80B4A0B490C4B1568146898
:103F2000C5F3032204F00F048A5C095D02F01F024E
:103F300001F01F01D040064A20FA01F1196010601B
:103F4000084630BD18440258D005039034000020C4
:103F50003000002000B5FFF7DBFF05490968054A7E
:103F6000C1F30211515C01F01F01C84000BD000007
:103F70001C440258D005039000B5FFF7C9FF05495E
:103F80000968054AC1F30221515C01F01F01C840D4
:103F900000BD00001C440258D0050390454970B58F
:103FA00045480968434B103B11F0380208D0011115
:103FB000082A03D0102A0BD0182A0BD0084670BD4F
:103FC00019688906FBD51968C1F3C101C84070BDE5
:103FD0003A4870BD3749374D18310C1D24350A68F1
:103FE000096826682D6802F0030406F00102C1F397
:103FF0000511C5F3CC0515FB02F200EE102AB8EE50
:10400000400AE9B32F4ADFED2E0AB7EE001A6CB171
:10401000DFED2D1A012C01D0022C43D002EE101A34
:104020001068F8EE422A81EEA22A1EE01C68A4065F
:1040300011D51B6801EE901A1168C3F3C103F8EEA5
:10404000612AD84001EE900AC1F30800F8EE611A27
:1040500081EEA22A0BE001EE901ADFED1C2A00BFD0
:10406000F8EE611A106882EEA12AC0F3080001EE92
:10407000900AF8EE611A40EE201A31EE810A00E053
:1040800015E022EE000A1068C0F34620401C00EE46
:10409000900AF8EE600A80EE201ABCEEC10A10EE1B
:1040A000100A70BD01EE901ADFED092AD8E7002052
:1040B00070BD0000104402580090D00340787D018C
:1040C00000000039304402580024744A0024744C23
:1040D00020BCBE4B2DE9F05F04007DD0FB4F207863
:1040E000FA4D1837DFF8E483103DC00766D0D8F8E2
:1040F0000000396800F03800102822D0182803D1B9
:1041000001F0030002281CD06068B0F5803F1FD08A
:1041100010B3B0F5A02F2BD0B0F5A81F28682FD072
:1041200020F480302860286820F4802028602868E7
:1041300020F480102860606898B3FEF787FC06467C
:104140002BE02868800339D560680028C5D035E0A9
:10415000286840F48030EDE7286820F4803028603B
:10416000286820F480102860286820F48020E1E787
:10417000286840F480202860286820F4801005E03A
:1041800040F480202860286840F480102860DFE731
:10419000FEF75CFC801B64287ED828688003F7D576
:1041A0000CE0FFE7FEF752FC064604E0FEF74EFC8B
:1041B000801B6428F0D828688003F7D42078800713
:1041C00056D5D8F80000DFF80493396810F03800AD
:1041D000A9F10C0910D000E0F0E0182801D18807FF
:1041E0000AD0E06898B3296821F0190101432960D9
:1041F000FEF72CFC064626E02868400702D5E0685A
:104200000028A3D0E168286820F01900084328603E
:10421000FEF71CFC064604E0FEF718FC801B022893
:10422000BAD828684007F7D5217CD9F8002022F0B9
:10423000FE4242EA0161C9F8001019E0FEF706FCEF
:10424000801B0228A8D828684007F7D5ECE7FFE7CD
:10425000286820F001002860FEF7F8FB064604E01D
:10426000FEF7F4FB801B022896D828684007F7D495
:104270002078C00646D5D8F80000DFF8509239689B
:1042800000F03800A9F10409082812D0182805D137
:1042900001F00300012800E0ECE00AD0E06900280A
:1042A000286820D040F080002860FEF7CFFB06464B
:1042B00015E02868C00502D5E06980287ED194F811
:1042C0002010D9F8002022F07C5242EA0161C9F89E
:1042D000001017E0FEF7BAFB801B0228A0D8286860
:1042E000C005F7D5EBE720F080002860FEF7AEFBB5
:1042F000064604E0FEF7AAFB801B022890D8286837
:10430000C005F7D42078000729D57048616964306A
:1043100000298146016811D041F001010160FEF7DA
:1043200095FB064605E000BFFEF790FB801B0228C8
:1043300088D8D9F800008007F6D510E021F00101F7
:104340000160FEF783FB064605E000BFFEF77EFB3B
:10435000801B022888D8D9F800008007F6D420787E
:10436000800623D5A0690028286810D040F480502A
:104370002860FEF76BFB064605E000BFFEF766FB14
:10438000801B022876D828688004F7D50EE020F438
:1043900080502860FEF75AFB064604E0FEF756FB05
:1043A000801B022866D828688004F7D4207840074C
:1043B0006FD5DFF81C91D9F8001000E035E141F429
:1043C0008071C9F80010FEF741FB064605E000BF0A
:1043D000FEF73CFB801B64284CD8D9F80000C005D0
:1043E000F6D53A4EA0686036012818D0D8B1052815
:1043F00025D0852830682AD020F001003060306850
:1044000020F004003060306820F080003060A06848
:1044100041F2883A78B3FEF719FB814626E030680E
:1044200040F00100F2E7306820F0010030603068B1
:1044300020F080003060306820F00400E6E730684B
:1044400040F004003060306820F0800005E040F06B
:1044500004003060306840F080003060DFE700BF6B
:10446000FEF7F4FAA0EB0901514503D83068800744
:10447000F6D50EE088E0FFE7FEF7E8FA814605E0B2
:10448000FEF7E4FAA0EB090151457DD830688007BA
:10449000F6D4606AF0B34146DFF8308008F12008B6
:1044A000096808F10409A8F1040A4FF6F87BC1F382
:1044B000C201032969D00228286820F08070286092
:1044C00008D0FEF7C3FA044684E000001044025806
:1044D00000480258FEF7BAFA064604E0FEF7B6FABC
:1044E000801B022873D828688001F7D4E26A40F262
:1044F000F331386854F8283F884340EA02101843E3
:104500003860217B4FF4FE0C22894FF0FE47208A51
:10451000267D00E0ADE049024346521E401EA1F553
:104520000071C2F308088AB2761E0CEA004042EA23
:1045300008020243504607EA06610A431A60DAF8A5
:10454000002022F00102CAF80020D9F80020266AD3
:1045500022EA0B0242EAC602C9F80020DAF800108B
:10456000A26921F00C011143CAF800100168E26948
:1045700021F0020111430160016841F480310160C2
:10458000016841F4003101E021E027E001600168A9
:1045900041F480210160016841F001010160286857
:1045A00040F080702860FEF751FA044605E000BF35
:1045B000FEF74CFA001B022809D828688001F7D5BD
:1045C00057E000BFFEF742FA001B022802D9032081
:1045D000BDE8F09F28688001F4D44AE039680128DA
:1045E000D8F8000021D0A26A01F0030393421CD145
:1045F000E26AC1F305118A4217D1216BC0F30802A8
:10460000491E8A4211D1616BC0F34622491E914274
:104610000BD1A16BC0F30642491E914205D1E16B5B
:10462000C0F30660491E814201D00120D0E7A16C91
:104630004E46D9F80000C0F3CC00814219D0DAF818
:104640000000554620F00100CAF80000FEF7FEF910
:104650004FEA0007FEF7FAF9B842FBD0A26C3068C7
:1046600020EA0B0040EAC2003060286840F00100F8
:1046700028600020ACE770472DE9F041044600684F
:10468000002102694369876894F8816002EA0305A2
:104690005FEA035C0AD5120708D5816941F400611D
:1046A0008161204600F03CFBBDE8F08115F0600F11
:1046B00008D1680706D5616F20468847216F2046DC
:1046C0008847012105F04100012805D1680703D47E
:1046D000216F20468847012105F02200022806D1DB
:1046E000680704D4616F2046BDE8F04108470029FF
:1046F000DAD128074FF0010859D52068816941F0C7
:10470000080181612068816941F0100181612068A0
:10471000816941F4006181612068016921F008012B
:1047200001612068806810F4404F1ED021E0E068ED
:104730000F2806D92068616E006B0860606E001D4E
:104740000DE0616E0728206804D9008E0880606E35
:10475000801C04E090F830000870606E401C6066B9
:10476000B4F86A00401EA4F86A00B4F86A00002891
:10477000DDD1204601F0E8FB84F88180D4F8840084
:1047800018B12046FFF777FF8EE7052E07D0042EDD
:1047900009D0032E88D1204600F0BEFB84E72046D6
:1047A00000F0BCFB80E7204600F0A8FA7CE715F497
:1047B000587FE9D068060AD5D4F8840040F0040098
:1047C000C4F884002068816941F040018161A80536
:1047D0000AD5D4F8840040F00100C4F884002068B1
:1047E000816941F400718161E8050AD5D4F884003B
:1047F00040F00800C4F884002068816941F48071A9
:104800008161A8060AD5D4F8840040F08000C4F87D
:1048100084002068816941F020018161D4F884001E
:104820000028B1D0206840F26B32C7F381310368B1
:10483000032923F0010101602068016921EA0201D6
:10484000016102D084F881809BE72068104D816867
:1048500021F440418160E06F50B10565E06FFDF7E4
:10486000DFF828B1D4F8840040F04000C4F8840098
:10487000A06F002888D00565A06FFDF7D1F800284B
:104880008CD0D4F8840040F04000C4F884000BE7DA
:10489000056000902DE9F047040029D0594A4FF0F7
:1048A00000092068584B594D9042C4F8289006D012
:1048B000984204D0A84202D0E1680F2918D8E168D4
:1048C0004FF0010AE76B0831C9080AEB571671432C
:1048D000904205D0984203D0A84201D0082907D8B9
:1048E000904203D0984201D0A84204D1102902D9A5
:1048F0000120BDE8F08794F8810020B9204684F8B3
:10490000809000F085F8022084F88100206801681A
:1049100021F0010101602068A1698268B1F1806F16
:1049200002F4F81110D16268B2F5800F01D01AB10B
:104930000AE0A26B22B107E0A26BB2F1805F03D163
:10494000026842F4805202606068400209D5E06863
:10495000072806D32068236D026822F480721A4368
:1049600003E02068026822F480720260A66AE069AF
:10497000E26B25683043E3680A4310431843A8609C
:10498000D4E90D02D4E90581636A25691843D4F896
:1049900020C00A43266810432843A56DD4E901725C
:1049A000D4E9123140EA080040EA0C0038430843D9
:1049B000104318432843F060606868B92068816834
:1049C00021F4C05141F4006181602068816821F4C4
:1049D000C06141F4806181602068016D21F00101B6
:1049E00001656068400206D52068626DC16821F0EB
:1049F00000411143C160C4F8849084F881A0002074
:104A000077E700000030014000380040003C0040E3
:104A10002DE9F04FB7B00746142130A8FBF714FD7D
:104A2000C0216846FBF710FD784D002479494FF40A
:104A300080693868083D754E4FF00208DFF8D0B144
:104A400088424FF0400A67D1811419940020CDE9C3
:104A500000106846FEF75AFC08B1FCF70AFE306801
:104A600040F480403060306800F480403590286821
:104A700040F004002860286800F0040035902868A1
:104A800040F002002860286800F002003590286895
:104A900040F00100286028680526CDF8C08030A9C4
:104AA00000F001004546CDE931843394CDE934600E
:104AB0005846FDF7ABFE4FF400503090CDE931542D
:104AC000554830A9CDE93346FDF7A0FE4FF400600C
:104AD0003090CDE93154514830A9CDE93346FDF746
:104AE00095FE4F4D28234F4A2846C5E903496C617E
:104AF000AC61EC612C626C6285E80C04FDF768FC2B
:104B000008B1FCF7B6FDBD6700220521AF63242084
:104B1000FEF74AFA242073E04349884272D1811497
:104B200019940020CDE900106846FEF7EFFB08B1AC
:104B3000FCF79FFD306840F400403060306800F4BE
:104B400000403590286840F001002860286800F097
:104B500001003590286840F0040028602868464627
:104B600003254FF0060800F004001021CDE93016AF
:104B7000CDE93480294830A9CDE93245FDF746FE1C
:104B80004FF4E051584632AACDE9301630A982E8F8
:104B90003001FDF73BFE224E3D23224AC8467836BF
:104BA000303A30464FF4403986E81C00C6E90348E5
:104BB0007461B461C6E907497462FDF709FC08B184
:104BC000FCF757FD164D3E23FE67F035B763154AD7
:104BD0002846C5E903486C61183AAC61C5E9074944
:104BE0006C6285E80C04FDF7F3FB08B1FCF741FDAE
:104BF000BD6700220121AF633320FEF7D5F93320D2
:104C0000FEF7C4F937B0BDE8F08F00004845025800
:104C10000008025800380040000402580000025802
:104C2000A80B002040000240003C004030B590F846
:104C30008030012B09D090F881500124002380F8A6
:104C40008040012D03D0022119E0022030BDA9B11E
:104C5000A2B1C46804254166A0F8682080F881509C
:104C6000C0F88430A0F86A20C365A0F86030A0F8CE
:104C700062300F2C436706D91D4909E0012180F8F5
:104C80008030084630BD072C01D91A4900E01A4986
:104C900001678168B1F5C02F01681BD0CC6824F48E
:104CA000C02444F48024CC60016840F249744D680B
:104CB0006FF30F0515434D6001680A6842F0010269
:104CC0000A6001680A6922430A614168B1F5800FF0
:104CD00005D009E00C6824F400640C60E4E7016886
:104CE0000A6842F400720A6080F88030184630BDCD
:104CF0004B6000901F6000907760009005498842EB
:104D000006D10549642305484FF4806200F042BB98
:104D100070470000200B002086050020100D0020A9
:104D200070470000F0B590F880400025012C09D0B4
:104D300090F881700126002480F88060012F03D054
:104D400002211DE00220F0BDC9B1C2B1BBB1C668ED
:104D50000527C16580F88170C0F88440A0F86230F2
:104D600042662C300F2E83868387C387C18EA0F1C5
:104D70002C0009D92D4A42672D4A02670EE0012115
:104D800080F880400846F0BD072E03D9294A026703
:104D9000294A02E0294A0267294A42670268D6681E
:104DA00026F4C026D660026856686FF30F061E43CD
:104DB00056600268136843F0010313601DE0C16888
:104DC0000F2905D9C16D09681162C16D091D0CE07B
:104DD0000729C16D04D909881184C16D891C04E0BB
:104DE000097882F82010C16D491CC165B0F86210C5
:104DF000491EA0F86210B0F86210026853699B0760
:104E000001D50029DBD1116940F26C73194311619E
:104E10004168B1F5800F04D101680A6842F400725C
:104E20000A6080F880402846F0BD0000D160009004
:104E30004B6000901F600090A5600090776000902C
:104E4000FD60009030B590F88030012B10D0012328
:104E500080F880304FF0000361B15AB190F8814082
:104E6000012C09D05FF0020180F88030084630BD87
:104E7000022030BD0121F7E7C4680325C165A0F811
:104E8000602080F88150C0F88430A0F8622043662A
:104E9000A0F86830A0F86A300F2C036701D91B49CD
:104EA00004E0072C01D91A4900E01A4941678168DA
:104EB000B1F5C02F01681BD0CC6824F4C02444F4A1
:104EC0000034CC60016840F22A744D686FF30F051E
:104ED00015434D6001680A6842F001020A600168EA
:104EE0000A6922430A614168B1F5800F05D009E0E3
:104EF0000C6844F400640C60E4E701680A6842F45A
:104F000000720A6080F88030184630BDD160009091
:104F1000A5600090FD600090704700000349884242
:104F200002D103490120087070470000200B0020C7
:104F3000D002002070477047704710B5040003D0BE
:104F400094F83D0010B107E0012010BD002084F866
:104F50003C00204600F022F8022084F83D00206842
:104F6000211D01F0E7F9012084F8480084F83E0093
:104F700084F83F0084F8400084F8410084F842003F
:104F800084F8430084F8440084F8450084F846001F
:104F900084F8470084F83D00002010BD70470000F1
:104FA00090F83D10012901D001207047174A0221D5
:104FB00080F83D100168CB6843F00103CB600068C6
:104FC000904214D0B0F1804F11D0114988420ED0D8
:104FD000104988420BD01049884208D00F498842B6
:104FE00005D00F49884202D00E49884207D1816816
:104FF0000D4A1140062906D0B1F5803F03D0016863
:1050000041F00101016000207047000000000140F4
:105010000004004000080040000C00400004014073
:10502000001800400040014007000100704770B5C3
:105030000446006800250169C943890715D4C16881
:10504000C943890711D4EA1E026101212177206832
:1050500080698007204602D0FFF7E8FF04E000F0F7
:10506000A7F8204600F0A5F8257720680169C94314
:10507000490717D4C168C943490713D402216FF007
:105080000402026121772068806910F4407F204685
:1050900002D0FFF7CBFF04E000F08AF8204600F0D2
:1050A00088F8257720680169C943090716D4C168C3
:1050B000C943090712D404216FF008020261217765
:1050C0002068C0698007204602D0FFF7AFFF04E0E8
:1050D00000F06EF8204600F06CF825772068016932
:1050E000C943C90617D4C168C943C90613D40821E6
:1050F0006FF01002026121772068C06910F4407FD0
:10510000204602D0FFF792FF04E000F051F820465D
:1051100000F04FF8257720680169C943C90708D115
:10512000C168C943C90704D1891E0161204600F046
:1051300041F820680169C943090609D4C168C94317
:10514000090605D46FF0800101612046FFF7F3FEE8
:1051500020680169C943C90509D4C168C943090662
:1051600005D46FF4807101612046FFF7E3FE2068EB
:105170000169C943490609D4C168C943490605D430
:105180006FF040010161204600F01EF820680169BF
:10519000C94389060BD4C168C943890607D46FF097
:1051A000200101612046BDE87040FFF7C5BE70BD1B
:1051B0007047704700680349884201D1FDF74CBC35
:1051C0007047000000480140704730B590F88410E7
:1051D000012918D0012280F884202421C0F88810E9
:1051E0000022202401680B680D6823F0005325F08D
:1051F00001050D60426601680B60C0F8884080F8C8
:105200008420104630BD022030BD70B5044690F8B1
:10521000840001281DD0012284F884202420C4F8B1
:10522000880020680568026822F001020260206898
:10523000826822F060620A438260204601F036FBF9
:105240002268202100201560C4F8881084F88400AA
:1052500070BD022070BD70B5044690F8840001282E
:105260001DD0012284F884202420C4F888002068FE
:105270000568026822F0010202602068826822F05C
:1052800060420A438260204601F010FB2268202120
:1052900000201560C4F8881084F8840070BD0220D6
:1052A00070BD10B5040003D0D4F8880010B107E039
:1052B000012010BD002084F88400204600F026F86C
:1052C0002420C4F888002068016821F001010160F1
:1052D000204601F0F1FB0128EBD0A06A10B1204676
:1052E00001F006FB2068416821F49041416020688C
:1052F000816821F02A0181602068016841F0010184
:1053000001602046BDE8104001F056BB10B5B6B0B4
:105310000446142130A8FBF797F8C0216846FBF734
:1053200093F81949206888422BD10020219001214F
:105330000446CDE900106846FDF7E8FF08B1FCF728
:1053400098F91248016841F010010160006800F00E
:10535000100035900D481038016841F001010160DE
:10536000006830AB022100F0010035904FF4C060BE
:10537000072283E81300064830A9CDE93342FDF740
:1053800045FA36B010BD00000010014050450258EB
:10539000000002582DE9F8430446D0F888009846EA
:1053A00016460D46202802D00220BDE8F883A5B19C
:1053B0009EB10021C4F890102120C4F88800183450
:1053C000FDF744FB814654F8100CA687E68720279A
:1053D000183CB0F5805F02D003E00120E5E72069CA
:1053E00010B12E46002510E000260EE08021204658
:1053F00001F050FDC0B9DEB116F8010B21688862DA
:10540000B4F85600401EA4F85600B4F856004B46B7
:105410004FF00002CDF800800028E7D14FF04001A6
:10542000204601F037FD48B1C4F888700320BCE77E
:1054300035F8020B2168C0F30800E0E7C4F8887073
:105440000020B2E7FEE700000F48002330B50F4907
:105450004FF44034026822F00102026004600C4DF7
:105460000C4A8C6844630364CB68C3634564496831
:105470008163916C0129FCD1016841F00101016057
:105480000168C907FCD130BD001000525C05002046
:10549000E001200300100050F0B5124C01EBC107F1
:1054A00007EB0111059E0025276800EB411043EA38
:1054B00002414FF0105C0CEB400027F00103236029
:1054C000C2F5487225600223E36125612264E6602B
:1054D000E0636164206840F0010020602068C0073C
:1054E000FCD1F0BD00100052014948747047000023
:1054F0005C0500201B4A002330B5C0F3C40194684A
:10550000022C05D0032C0CD0042C1AD0506030BDD6
:105510004FF478434FF4FC6403EA102304EA50107C
:105520000BE0040E01D04FF400434FF4F844651132
:1055300004EA5024234305EA901003430B435360CD
:1055400030BD4FF47041F0250B1103EA103401EA2D
:105550001041C0F30313214305EA1020014319430E
:10556000516030BD5C0500201B4A002330B5C0F3FC
:10557000C4019468022C05D0032C0CD0042C1AD042
:10558000106030BD4FF478434FF4FC6403EA1023FD
:1055900004EA50100BE0040E01D04FF400434FF426
:1055A000F844651104EA5024234305EA90100343AC
:1055B0000B43136030BD4FF47041F0250B1103EA2B
:1055C000103401EA1041C0F30313214305EA10200F
:1055D00001431943116030BD5C050020014908609A
:1055E000704700000C00002004484FF010530221C7
:1055F0000022C0E902138174027470475C05002028
:105600000149C874704700005C0500200148FDF79F
:10561000C5BA0000F00900200148FDF7BFBA00003C
:10562000F00900202DE9FE4F81460068882493464A
:105630008D888C2204EBCB178A46C3689421BE4622
:10564000C459C3F30B432B4404F470441F04019763
:1056500002EBCB1240F80E4001EBCB13DAF80070EE
:105660009C214FF0AC0C01EBCB1440F2077102917E
:105670000CEBCB11D9F800C098250020CDF800C064
:10568000A02605EBCB15DCF80CC006EBCB16CCF353
:105690000B4C0CF1010C07EB0C08DDF800C0019F6E
:1056A00048EA07084CF80E80D9F80070BAF80CC028
:1056B000B846FF68C7F30A0767444FEA074E58F831
:1056C000027007F4704C48F802C0D9F800C0DAF84C
:1056D0000870DCF80C80C8F30A0808F10108B84427
:1056E00048EA0E084CF80280D9F80020D75827F075
:1056F0000707D750D9F80070DAF81020FA509AF856
:1057000031209AF818304FEA022C9AF8322012040D
:1057100042EA0362D9F800301F5918519AF8303024
:1057200043EA0C031343D9F800201351D9F80020A1
:10573000535923F0FF035351D9F80020DAF81430FD
:105740005351D9F800209359029CA3439351D9F89F
:105750000030DAE9072422439A51D9F8002053583F
:105760005050D9F80020DAF824005050DAF8100030
:10577000C8B301283AD004283AD0022838D00328E8
:1057800036D0072834D00120D9F80030B02505EBF9
:10579000CB11B42284245D5802EBCB1205F0E02536
:1057A0005D50DAE9003504EBCB14EB1ABAF8285057
:1057B00043434543D9F80000DB1D43EA054343500A
:1057C000D9F8000081586FF30A018150D9F8000020
:1057D000DAF82C108150D9F80000015941F001018C
:1057E0000151BDE8FE8FFFE70420CDE70320CBE7A2
:1057F0000220C9E7104801220E4B002110B50360BA
:10580000C0E90112C160C0E91112C16401654165BE
:105810008165C165FCF7A0F808B1FBF72AFF0648CF
:105820000121FBF7A7FF002803D0BDE81040FBF7DC
:1058300020BF10BD0010005288090020114808B593
:10584000016841F00101016000680022052100F0BB
:10585000010000900B20FDF7A7FB0B20FDF796FB46
:10586000002205210C20FDF79FFB0C20FDF78EFB8D
:10587000002205210D20FDF797FBBDE808400D2013
:10588000FDF784BB384502580A4810B522F01BFAD0
:10589000094C0021074A483AA060084822F068FAFB
:1058A000044A002120600648243A22F061FA606030
:1058B00010BD000090050390180000202D6100909D
:1058C000556100902DE9F04387B014216846FAF73E
:1058D000BBFD3748016841F080010160016801F0BB
:1058E00080010591016841F004010160016801F047
:1058F00004010591016841F001010160016801F0B6
:1059000001010591016841F002010160016801F0A7
:1059100002010591016841F010010160016801F088
:1059200010010591016841F00801016000684FF421
:10593000A046DFF88080002200F008003146059084
:105940004046FDF77EF80122DFF86C90D703484609
:105950003946FDF776F80024009601256946404651
:10596000CDE901540394FCF751FF00976946CDE956
:10597000015448460394FCF749FFCDE900546946B9
:1059800048460294FCF742FF02204FF488118DE84C
:10599000130069464846FCF739FF0022052107201D
:1059A000FDF702FB0720FDF7F1FA07B0BDE8F08331
:1059B0004045025800040258000C02582DE9F04FEF
:1059C0008FB034216846FAF73FFD5B48016841F02B
:1059D0001001016000680024DFF8649140F2ED18C6
:1059E00000F010000D904846DFF850B109F1140A9C
:1059F00040F25536282140F2EB17C0E900B4C9F84F
:105A000008400922C9F80C403523C9F830800B251D
:105A100040F2753CC9F810408AE8EE1089F834402D
:105A200080F8354089F83640FDF71CF908B1FBF7DE
:105A300020FE4FF448754FF005084FF4F07A04A8A3
:105A4000CDE900450221FF22CDE9024ACDE90A5AFB
:105A50004FF01056099680E816004B023848CDE901
:105A600007388DF8304000228DF8314069468DF8B6
:105A70003240FDF769F808B1FBF7FBFD48464FF4EB
:105A8000876709F1200E40F21E2C2821C0E900B4DE
:105A9000C9F808404FF45C73C9F80C404FF4027623
:105AA000C9F810405022C9F814408EE8CA10C0E965
:105AB000064289F8364089F83540214889F8344053
:105AC000FDF7D0F804A8CDE900450221FF22CDE979
:105AD000024ACDE90A5A4FF01056099680E816009E
